{
  "abi": [
    {
      "inputs": [],
      "stateMutability": "payable",
      "type": "constructor"
    },
    {
      "inputs": [
        {
          "internalType": "uint8",
          "name": "n",
          "type": "uint8"
        }
      ],
      "name": "guess",
      "outputs": [],
      "stateMutability": "payable",
      "type": "function"
    },
    {
      "inputs": [],
      "name": "isComplete",
      "outputs": [
        {
          "internalType": "bool",
          "name": "",
          "type": "bool"
        }
      ],
      "stateMutability": "view",
      "type": "function"
    }
  ],
  "bytecode": {
    "object": "0x608060405234670de0b6b3a76400001461001857600080fd5b610023600143610066565b6040805191406020830152429082015260600160408051808303601f1901815291905280516020909101206000805460ff191660ff90921691909117905561008b565b60008282101561008657634e487b7160e01b600052601160045260246000fd5b500390565b6101108061009a6000396000f3fe60806040526004361060265760003560e01c80634ba4c16b14602b578063b2fa1c9e14603c575b600080fd5b603a603636600460b2565b605c565b005b348015604757600080fd5b50604080514715815290519081900360200190f35b34670de0b6b3a764000014606f57600080fd5b60005460ff9081169082160360af576040513390600090671bc16d674ec800009082818181858883f1935050505015801560ad573d6000803e3d6000fd5b505b50565b60006020828403121560c357600080fd5b813560ff8116811460d357600080fd5b939250505056fea26469706673582212209e858f34dbe9f499abaacdac8e92fb3f7d3155f401b186ba8846d8ff1fa6973964736f6c634300080d0033",
    "linkReferences": {}
  },
  "methodIdentifiers": {
    "guess(uint8)": "4ba4c16b",
    "isComplete()": "b2fa1c9e"
  },
  "id": 10
}