{
  "abi": [
    {
      "inputs": [],
      "stateMutability": "payable",
      "type": "constructor"
    },
    {
      "inputs": [
        {
          "internalType": "uint8",
          "name": "n",
          "type": "uint8"
        }
      ],
      "name": "guess",
      "outputs": [],
      "stateMutability": "payable",
      "type": "function"
    },
    {
      "inputs": [],
      "name": "isComplete",
      "outputs": [
        {
          "internalType": "bool",
          "name": "",
          "type": "bool"
        }
      ],
      "stateMutability": "view",
      "type": "function"
    }
  ],
  "bytecode": {
    "object": "0x60806040527fdb81b4d58595fbbbb592d3661a34cdca14d7ab379441400cbfa1b78bc447c365600055670de0b6b3a7640000341461003c57600080fd5b6101458061004b6000396000f3fe6080604052600436106100295760003560e01c80634ba4c16b1461002e578063b2fa1c9e14610043575b600080fd5b61004161003c3660046100e5565b610064565b005b34801561004f57600080fd5b50604080514715815290519081900360200190f35b34670de0b6b3a76400001461007857600080fd5b6000546040516001600160f81b031960f884901b16602082015260210160405160208183030381529060405280519060200120036100e2576040513390600090671bc16d674ec800009082818181858883f193505050501580156100e0573d6000803e3d6000fd5b505b50565b6000602082840312156100f757600080fd5b813560ff8116811461010857600080fd5b939250505056fea2646970667358221220cdbc3d764c62033695f1d6619136021186de0c2c908b0f58d2a9db8123d98c1664736f6c634300080d0033",
    "linkReferences": {}
  },
  "methodIdentifiers": {
    "guess(uint8)": "4ba4c16b",
    "isComplete()": "b2fa1c9e"
  },
  "id": 12
}